{
  "_format": "hh-sol-artifact-1",
  "contractName": "BasicDutchAuction",
  "sourceName": "contracts/BasicDutchAuction.sol",
  "abi": [
    {
      "inputs": [
        {
          "internalType": "uint256",
          "name": "_reservePrice",
          "type": "uint256"
        },
        {
          "internalType": "uint256",
          "name": "_numBlocksAuctionOpen",
          "type": "uint256"
        },
        {
          "internalType": "uint256",
          "name": "_offerPriceDecrement",
          "type": "uint256"
        }
      ],
      "stateMutability": "nonpayable",
      "type": "constructor"
    },
    {
      "inputs": [
        {
          "internalType": "address",
          "name": "",
          "type": "address"
        }
      ],
      "name": "balanceOf",
      "outputs": [
        {
          "internalType": "uint256",
          "name": "",
          "type": "uint256"
        }
      ],
      "stateMutability": "view",
      "type": "function"
    },
    {
      "inputs": [],
      "name": "bid",
      "outputs": [
        {
          "internalType": "address",
          "name": "",
          "type": "address"
        }
      ],
      "stateMutability": "payable",
      "type": "function"
    },
    {
      "inputs": [],
      "name": "getCurrentPrice",
      "outputs": [
        {
          "internalType": "uint256",
          "name": "",
          "type": "uint256"
        }
      ],
      "stateMutability": "view",
      "type": "function"
    },
    {
      "inputs": [],
      "name": "getNumBlocksAuctionOpen",
      "outputs": [
        {
          "internalType": "uint256",
          "name": "",
          "type": "uint256"
        }
      ],
      "stateMutability": "view",
      "type": "function"
    },
    {
      "inputs": [],
      "name": "getPriceDecrement",
      "outputs": [
        {
          "internalType": "uint256",
          "name": "",
          "type": "uint256"
        }
      ],
      "stateMutability": "view",
      "type": "function"
    },
    {
      "inputs": [],
      "name": "getReservePrice",
      "outputs": [
        {
          "internalType": "uint256",
          "name": "",
          "type": "uint256"
        }
      ],
      "stateMutability": "view",
      "type": "function"
    },
    {
      "inputs": [],
      "name": "getSellerAddress",
      "outputs": [
        {
          "internalType": "address",
          "name": "",
          "type": "address"
        }
      ],
      "stateMutability": "view",
      "type": "function"
    },
    {
      "inputs": [],
      "name": "getWinnerAddress",
      "outputs": [
        {
          "internalType": "address",
          "name": "",
          "type": "address"
        }
      ],
      "stateMutability": "view",
      "type": "function"
    },
    {
      "inputs": [],
      "name": "isAuctionOpen",
      "outputs": [
        {
          "internalType": "bool",
          "name": "",
          "type": "bool"
        }
      ],
      "stateMutability": "view",
      "type": "function"
    },
    {
      "inputs": [],
      "name": "seller",
      "outputs": [
        {
          "internalType": "address",
          "name": "",
          "type": "address"
        }
      ],
      "stateMutability": "view",
      "type": "function"
    },
    {
      "inputs": [],
      "name": "winner",
      "outputs": [
        {
          "internalType": "address",
          "name": "",
          "type": "address"
        }
      ],
      "stateMutability": "view",
      "type": "function"
    }
  ],
  "bytecode": "0x61010060405260006003556001600460006101000a81548160ff0219169083151502179055503480156200003257600080fd5b506040516200172b3803806200172b8339818101604052810190620000589190620001e9565b620000746799f31000aa6ae8ce60c01b620001a660201b60201c565b6200009067eff0ec82d3c7468c60c01b620001a660201b60201c565b8260808181525050620000b4672084dde582f00cef60c01b620001a660201b60201c565b8160a08181525050620000d86788563505fd04cf9b60c01b620001a660201b60201c565b8060c08181525050620000fc672e9fb7e40392140b60c01b620001a660201b60201c565b80826200010a919062000274565b83620001179190620002bf565b60e081815250506200013a6750e4c827a130742a60c01b620001a660201b60201c565b336000806101000a81548173ffffffffffffffffffffffffffffffffffffffff021916908373ffffffffffffffffffffffffffffffffffffffff16021790555062000196670bd7bbc44780673760c01b620001a660201b60201c565b43600281905550505050620002fa565b50565b600080fd5b6000819050919050565b620001c381620001ae565b8114620001cf57600080fd5b50565b600081519050620001e381620001b8565b92915050565b600080600060608486031215620002055762000204620001a9565b5b60006200021586828701620001d2565b93505060206200022886828701620001d2565b92505060406200023b86828701620001d2565b9150509250925092565b7f4e487b7100000000000000000000000000000000000000000000000000000000600052601160045260246000fd5b60006200028182620001ae565b91506200028e83620001ae565b92508282026200029e81620001ae565b91508282048414831517620002b857620002b762000245565b5b5092915050565b6000620002cc82620001ae565b9150620002d983620001ae565b9250828201905080821115620002f457620002f362000245565b5b92915050565b60805160a05160c05160e0516113e9620003426000396000610c92015260008181610bbc0152610c5901526000818161069b0152610aae01526000610d0001526113e96000f3fe60806040526004361061009c5760003560e01c806384b09e861161006457806384b09e861461017d578063922ba6d9146101a8578063cca41427146101d3578063dfbf53ae146101fe578063eb91d37e14610229578063f0722322146102545761009c565b806308551a53146100a157806310a37c26146100cc5780631998aeef146100f7578063277951a91461011557806370a0823114610140575b600080fd5b3480156100ad57600080fd5b506100b661027f565b6040516100c39190610d68565b60405180910390f35b3480156100d857600080fd5b506100e16102a3565b6040516100ee9190610d68565b60405180910390f35b6100ff6103e9565b60405161010c9190610d68565b60405180910390f35b34801561012157600080fd5b5061012a610a6e565b6040516101379190610d9c565b60405180910390f35b34801561014c57600080fd5b5061016760048036038101906101629190610de8565b610ad2565b6040516101749190610d9c565b60405180910390f35b34801561018957600080fd5b50610192610b18565b60405161019f9190610d68565b60405180910390f35b3480156101b457600080fd5b506101bd610b7c565b6040516101ca9190610d9c565b60405180910390f35b3480156101df57600080fd5b506101e8610be0565b6040516101f59190610e30565b60405180910390f35b34801561020a57600080fd5b50610213610bf3565b6040516102209190610d68565b60405180910390f35b34801561023557600080fd5b5061023e610c19565b60405161024b9190610d9c565b60405180910390f35b34801561026057600080fd5b50610269610cc0565b6040516102769190610d9c565b60405180910390f35b60008054906101000a900473ffffffffffffffffffffffffffffffffffffffff1681565b60006102b9676bed240097c238bb60c01b610d24565b6102cd67523889393a813fb260c01b610d24565b6102e167cd815eb3eb777ff760c01b610d24565b6102f567c484b91902e576de60c01b610d24565b3373ffffffffffffffffffffffffffffffffffffffff16600160009054906101000a900473ffffffffffffffffffffffffffffffffffffffff1673ffffffffffffffffffffffffffffffffffffffff1614610385576040517f08c379a000000000000000000000000000000000000000000000000000000000815260040161037c90610ea8565b60405180910390fd5b61039967f59a134a89cc950c60c01b610d24565b6103ad678872b4b8d6ebee3660c01b610d24565b6103c167c2722bca3ae07bab60c01b610d24565b600160009054906101000a900473ffffffffffffffffffffffffffffffffffffffff16905090565b60006103ff67848c88b58011cefb60c01b610d24565b61041367cc2f5b4aac9764c160c01b610d24565b61042767497dcea0e6c6583f60c01b610d24565b61043b675062a1f444ce294560c01b610d24565b600460009054906101000a900460ff1661048a576040517f08c379a000000000000000000000000000000000000000000000000000000000815260040161048190610f14565b60405180910390fd5b61049e674fbe3b1a03d3482960c01b610d24565b6104b267d53d2975cb6a3c4460c01b610d24565b6104c667a5ed559a86d77c5a60c01b610d24565b6104da675d7e44cbfe61011b60c01b610d24565b600073ffffffffffffffffffffffffffffffffffffffff16600160009054906101000a900473ffffffffffffffffffffffffffffffffffffffff1673ffffffffffffffffffffffffffffffffffffffff161461056b576040517f08c379a000000000000000000000000000000000000000000000000000000000815260040161056290610fa6565b60405180910390fd5b61057f6706babed1439deb1460c01b610d24565b6105936748370a22cf31c4f060c01b610d24565b6105a767764eae3aaea215ce60c01b610d24565b6105bb674b4b4c0c4e2b364060c01b610d24565b60008054906101000a900473ffffffffffffffffffffffffffffffffffffffff1673ffffffffffffffffffffffffffffffffffffffff163373ffffffffffffffffffffffffffffffffffffffff1603610649576040517f08c379a000000000000000000000000000000000000000000000000000000000815260040161064090611038565b60405180910390fd5b61065d67307f6488183e349e60c01b610d24565b61067167e8d38c8c9bbec33060c01b610d24565b61068567830b08ddf193325c60c01b610d24565b6106996788cdd7a168382b2c60c01b610d24565b7f0000000000000000000000000000000000000000000000000000000000000000600254436106c89190611087565b1115610709576040517f08c379a000000000000000000000000000000000000000000000000000000000815260040161070090611153565b60405180910390fd5b61071d67a060974daa4e42a560c01b610d24565b6107316716d9680ce0301d1e60c01b610d24565b6107456703f26ab92f0b7e0e60c01b610d24565b61075967fbb2f545508e307960c01b610d24565b6000471161079c576040517f08c379a0000000000000000000000000000000000000000000000000000000008152600401610793906111e5565b60405180910390fd5b6107b067b08bbae64ddc167760c01b610d24565b6107c467d3165029d2f2c3eb60c01b610d24565b6107d8677c27906f1b22f00360c01b610d24565b6107ec6726ee607fa614ae2c60c01b610d24565b6107f4610c19565b341015610836576040517f08c379a000000000000000000000000000000000000000000000000000000000815260040161082d90611277565b60405180910390fd5b61084a67fc5f91b14a7d975560c01b610d24565b61085e679e23091ecd59cd5960c01b610d24565b6003600081548092919061087190611297565b919050555061088a67f6855b24e450448160c01b610d24565b61089e671a2fa34d9f5b4e6c60c01b610d24565b6108b2679c88e8df40e1df7b60c01b610d24565b6000600354116108f7576040517f08c379a00000000000000000000000000000000000000000000000000000000081526004016108ee90611351565b60405180910390fd5b61090b67bc898e1c66efe13f60c01b610d24565b61091f67f1aa834561de79d960c01b610d24565b33600160006101000a81548173ffffffffffffffffffffffffffffffffffffffff021916908373ffffffffffffffffffffffffffffffffffffffff1602179055506109746701132dbaf2dd555860c01b610d24565b61098867c95848725bb97de660c01b610d24565b60008054906101000a900473ffffffffffffffffffffffffffffffffffffffff1673ffffffffffffffffffffffffffffffffffffffff166108fc349081150290604051600060405180830381858888f193505050501580156109ee573d6000803e3d6000fd5b50610a036764d13a3126a8fe0660c01b610d24565b6000600460006101000a81548160ff021916908315150217905550610a32679b4fa335e0e4ce3d60c01b610d24565b610a4667ff26214c7279770560c01b610d24565b600160009054906101000a900473ffffffffffffffffffffffffffffffffffffffff16905090565b6000610a8467664e1f12b170fcff60c01b610d24565b610a986776c164de18e4203860c01b610d24565b610aac67222222900398b4f560c01b610d24565b7f0000000000000000000000000000000000000000000000000000000000000000905090565b6000610ae867c993144ff93300a360c01b610d24565b610afc67628aebe9ca7aadb660c01b610d24565b610b106793f2af229af49b8d60c01b610d24565b479050919050565b6000610b2e67f8dbe4af0602b12c60c01b610d24565b610b426705b943216e55021d60c01b610d24565b610b56673b63feb3323f1f1d60c01b610d24565b60008054906101000a900473ffffffffffffffffffffffffffffffffffffffff16905090565b6000610b926766e02bf16d968e1060c01b610d24565b610ba6676f511e436b8f7b2460c01b610d24565b610bba6780ec1b793ade529a60c01b610d24565b7f0000000000000000000000000000000000000000000000000000000000000000905090565b600460009054906101000a900460ff1681565b600160009054906101000a900473ffffffffffffffffffffffffffffffffffffffff1681565b6000610c2f67db7e943f2309631260c01b610d24565b610c4367d06ad383a544e8b560c01b610d24565b610c576799592839b25bc26660c01b610d24565b7f000000000000000000000000000000000000000000000000000000000000000060025443610c869190611087565b610c909190611371565b7f0000000000000000000000000000000000000000000000000000000000000000610cbb9190611087565b905090565b6000610cd66714c8321be3e38c2d60c01b610d24565b610cea67d8fdc9799faedad660c01b610d24565b610cfe673a27b624bc2b80e560c01b610d24565b7f0000000000000000000000000000000000000000000000000000000000000000905090565b50565b600073ffffffffffffffffffffffffffffffffffffffff82169050919050565b6000610d5282610d27565b9050919050565b610d6281610d47565b82525050565b6000602082019050610d7d6000830184610d59565b92915050565b6000819050919050565b610d9681610d83565b82525050565b6000602082019050610db16000830184610d8d565b92915050565b600080fd5b610dc581610d47565b8114610dd057600080fd5b50565b600081359050610de281610dbc565b92915050565b600060208284031215610dfe57610dfd610db7565b5b6000610e0c84828501610dd3565b91505092915050565b60008115159050919050565b610e2a81610e15565b82525050565b6000602082019050610e456000830184610e21565b92915050565b600082825260208201905092915050565b7f596f7520617265207468652077696e6e65720000000000000000000000000000600082015250565b6000610e92601283610e4b565b9150610e9d82610e5c565b602082019050919050565b60006020820190508181036000830152610ec181610e85565b9050919050565b7f41756374696f6e20697320636c6f736564000000000000000000000000000000600082015250565b6000610efe601183610e4b565b9150610f0982610ec8565b602082019050919050565b60006020820190508181036000830152610f2d81610ef1565b9050919050565b7f596f75206a757374206d6973736564206f75742120546865726520697320616c60008201527f726561647920612077696e6e657220666f722074686973206974656d00000000602082015250565b6000610f90603c83610e4b565b9150610f9b82610f34565b604082019050919050565b60006020820190508181036000830152610fbf81610f83565b9050919050565b7f4f776e65722063616e6e6f74207375626d697420626964206f6e206f776e206960008201527f74656d0000000000000000000000000000000000000000000000000000000000602082015250565b6000611022602383610e4b565b915061102d82610fc6565b604082019050919050565b6000602082019050818103600083015261105181611015565b9050919050565b7f4e487b7100000000000000000000000000000000000000000000000000000000600052601160045260246000fd5b600061109282610d83565b915061109d83610d83565b92508282039050818111156110b5576110b4611058565b5b92915050565b7f41756374696f6e2068617320636c6f736564202d20746f74616c206e756d626560008201527f72206f6620626c6f636b73207468652061756374696f6e206973206f70656e2060208201527f666f722068617665207061737365640000000000000000000000000000000000604082015250565b600061113d604f83610e4b565b9150611148826110bb565b606082019050919050565b6000602082019050818103600083015261116c81611130565b9050919050565b7f596f7572206163636f756e74732062616c616e6365206973206e6f742067726560008201527f61746572207468616e2030000000000000000000000000000000000000000000602082015250565b60006111cf602b83610e4b565b91506111da82611173565b604082019050919050565b600060208201905081810360008301526111fe816111c2565b9050919050565b7f596f752068617665206e6f742073656e742073756666696369656e742066756e60008201527f6473000000000000000000000000000000000000000000000000000000000000602082015250565b6000611261602283610e4b565b915061126c82611205565b604082019050919050565b6000602082019050818103600083015261129081611254565b9050919050565b60006112a282610d83565b91507fffffffffffffffffffffffffffffffffffffffffffffffffffffffffffffffff82036112d4576112d3611058565b5b600182019050919050565b7f5468657265206d757374206265206174206c65617374206f6e6520626964207460008201527f6f2066696e616c697a6500000000000000000000000000000000000000000000602082015250565b600061133b602a83610e4b565b9150611346826112df565b604082019050919050565b6000602082019050818103600083015261136a8161132e565b9050919050565b600061137c82610d83565b915061138783610d83565b925082820261139581610d83565b915082820484148315176113ac576113ab611058565b5b509291505056fea2646970667358221220d09446c623be49c118ea33fdaa59c9cb7f6fd140ccd9527b4b847a64d86b9af264736f6c63430008110033",
  "linkReferences": {},
  "deployedLinkReferences": {}
}